:400000000080002011000000114700001147000008B5044B1A6803F53F5302331A6004F097FB00BFFA46004010B5054C237833B9044B13B10448AFF300800123237010BD31
:40004000A889FF1F0000000098ED0000084B10B51BB108490848AFF300800848036803B910BD074B002BFBD0BDE81040184700BF00000000AC89FF1F98ED0000C880FF1F28
:400080000000000000B583B00023019305F0D4FA10F0020F16D005F0DDFA114A13681B1A23F07F430093106005F0E0F918B9009B43F000430093002301AA69460848406880
:4000C00002F034FD019B3BB14FF08052054B1A60BFF34F8FBFF36F8F03B05DF804FB00BFC489FF1F04ED00E008B50A460146044B586802F085FD003018BF012008BD00BFB5
:40010000C489FF1F00B583B0002101A8FFF7ECFF0028F9D103B05DF804FB00BF10B582B0FFF7F0FF0024C82101A8FFF7DDFF70B1019B002BF7DB23F000430193B3F5FA7FE0
:4001400007D91C4444F620639C42ECDD03E00024E9E70024E7E702B010BD00BF094B1B7A7BB910B5074C0123237200220421402002F026FC6060044805F042FA05F0B0FA4F
:4001800010BD7047C489FF1F8500000008B504F0ABFB08BD08B504F03DFB08BD38B504460D46002004F0CEFE002004F0D7FE204604F044FB204604F047FB284603F0AEF971
:4001C00038BD00BF38B50D46144604F037FB284604F03AFB204603F0A1F938BD38B504460D46012004F0AEFE012004F0B7FE204604F024FB204604F027FB284603F08EF91A
:4002000038BD00BF00B583B003F05CF8019005F0A9F940B9012005F02FF9012003F07EF9002005F029F9192101A803F041F9EEE770B505F03BF9044600F0080303F0FF054B
:400240000BB305F03FF9064605F08CF9A0B9134A13889B1B9BB25268012A09D10F4A9268012A05D80E4AA2FB03235B090B4AD36000220A4B5A6002E00122084B5A60074BC3
:400280001E8000229A6014F0010F03D0034A936801339360002DCCD170BD00BFD089FF1F09CB3D8D0B4B1B699BB900B583B00A4805F07EF905F048F9084B019303230093B9
:4002C000002364220649074802F07AFF03B05DF804FB7047D089FF1F31020000E089FF1FA8ED000005020000014BD868704700BFD089FF1F08B5012002F00CFC014B1860AC
:4003000008BD00BFE489FF1FF8B50C46174600250FE023780A2B04D14FF0FF310D2001F045F9661C4FF0FF31207801F03FF901353446BD42EDDB3846F8BD00BF70B582B05C
:400340000D4616463E4B1B68986807F0E1FD4FF0FF313C4B186802F0CFFC00286DD0002460E00A210DF1070001F010F9002835D04FF0FF319DF8070001F018F99DF80730C1
:400380000D2B06D10A208DF807004FF0FF3101F00DF99DF807107F290BD12A4B5B68EBB1284A013B53609368013B03F07F03936014E0244A9368D0180173013303F07F03AC
:4003C00093605368013353600A2901D07F2B05D91C4AD2F88C300133C2F88C30194BD3F88C30FBB1174A5268C2B11648D0F890100844007B0A2804D1013B124EC6F88C3077
:4004000000262870013101F07F010E4BC3F89010013A5A600134013E013503E00022094BC3F88C20002E9CDC00231A4619460548006802F0DFFA204600E0002002B070BDFB
:400440003085FF1FE489FF1F10B582B004468DF804108DF8052004F001FD0023022201A9204604F011FC04F0DDFC10F0020FFAD0002002B010BD00BFF0B583B005461646CB
:400480001F4602AC04F8011D04F0E8FC002301222146284604F0F8FB04F0C4FC10F0020FFAD004F0DBFC00233A463146284604F051FC04F0B7FC10F0010FFAD003B0F0BD31
:4004C00000B583B001230DF10702FFF7D5FF9DF8070003B05DF804FB08B504F059FA772220211D20FFF7B0FF832226211D20FFF7ABFF0F211D20FFF7E3FF492801D101204A
:4005000008BD002008BD00BF10B582B0044606236A46A8211D20FFF7AFFF9DF801209DF8003043EA022323809DF803209DF8023043EA022363809DF805209DF8043043EABA
:400540000223A38002B010BD10B5002201214FF4807002F035FA044CC4F84004012002F0D9FAC4F8440410BD788AFF1F10B4154A82FB0032C317C3EB223242F2107303FBCD
:40058000120205E0104880FB0340DB17C3EBA00392FBF3F00028F5D00DE092FBF3F000F130040C7003FB1022074880FB0340DB17C3EBA0030131002BEFDC00230B7010BC7C
:4005C000704700BFAD8BDB686766666638B504460368984723686268934209D0054D2946204698476368236005F110012046984738BD00BFB0ED000038B504461F4D06E073
:4006000001354FF0FF3249B2206900F00BFE29780029F5D104F1700506E001354FF0FF3249B2206900F0FEFD29780029F5D1144D06E001354FF0FF3249B2206900F0F2FDC2
:4006400029780029F5D104F1900506E001354FF0FF3249B2206900F0E5FD29780029F5D1084D06E001354FF0FF3249B2206900F0D9FD29780029F5D138BD00BFD0ED0000C2
:40068000F4ED0000E0ED000038B504461F4D06E001354FF0FF3249B2206900F0C3FD29780029F5D104F1B00506E001354FF0FF3249B2206900F0B6FD29780029F5D1144D4B
:4006C00006E001354FF0FF3249B2206900F0AAFD29780029F5D104F1BE0506E001354FF0FF3249B2206900F09DFD29780029F5D1084D06E001354FF0FF3249B2206900F08C
:4007000091FD29780029F5D138BD00BFE4ED0000F8ED0000F0EE000010B586B0C46802238DF80830002303930493059302F0CAFD0190642101A802F0BBFE00231A4602A911
:40074000204602F057F9F4E730B585B0C568046903238DF80030002001900290039005F013FA142002F0DAFE012005F00DFA142002F0D4FE3221204600F070FD012806D166
:4007800000231A466946284602F034F9F2E7204600F072FD0028EDDD00231A466946284602F028F9E6E700BF10B584B004464FF0FF31806802F0A0FA07492046FFF706FFD4
:4007C0004FF0FF326946E06802F01AFA69462046FFF7FCFEF4E700BFC0ED000010B50446CC22002108F06CF9014B2360636010BD090E000070B582B006460D46224C204685
:40080000FFF7ECFF00221021202002F0D9F8E060012002F07FF9A0604FF480714FF4E13000F0B6FC2061314604F1700008F0B2FA294604F1900008F0ADFA00260196022514
:40084000009523464FF416721049114802F0B8FC01960095234664220E490F4802F0B0FC01960095234664220C490D4802F0A8FC02E0322002F052FE034B1A68094B9A421F
:40088000F7D1002002B070BD5C2A0020FCED0000A907000008EE00004907000010EE000019070000410A000030B585B01546164C204608F06FFA04F10E012846FFF756FE29
:4008C00004238DF8003000230193029303934FF0FF32694654F8A40C02F08CF840F6B83154F8A80C02F008FA012808D1B03C00231A461946A06802F07DF8002001E04FF017
:40090000FF3005B030BD00BF0C2B002070B50D46164664210F4B986802F0EEF9012804D0002414E00134013500E00024B44207DA0A222946074B186900F066FC0028F1D13F
:4009400000231A4619460348806802F053F8204670BD00BF5C2A0020F8B50C46174664210F4B986802F0C8F9012817D10BE0661C4FF0FF3294F90010094B186900F052FCA1
:400980002B46344600E03B465D1E002BEFDC00231A4619460248806802F02CF83846F8BD5C2A002010B584B005238DF80030002401940294039423464FF0FF3269460348E8
:4009C000C06802F017F8204604B010BD5C2A002008B54FF0FF31FFF7E5FF08BD00238361C3614361704700BF38B504460B7813B1022B07D038BD0F4808F0FCF82046FFF71B
:400A0000EDFF38BD4369013343610A2B0CD107E001354FF0FF3249B2206900F003FC00E0054D29780029F3D16369192B01D1034B636038BD20EE00001CEE0000090E000068
:400A40000B7813B1042B09D0704710B50446054808F0D0F82046FFF7C1FF10BD024B4360704700BF28EE0000910C000010B504460B78012B10D013B1052B13D010BD0B48BD
:400A800008F0B8F82046FFF7A9FF00231A461946A06801F0AFFF10BD4FF0FF31806802F02BF910BD024B436010BD00BF30EE0000B50A000038B504460B7813B1022B07D01F
:400AC00038BD0F4808F096F82046FFF787FF38BD4369013343610A2B0CD107E001354FF0FF3249B2206900F09DFB00E0054D29780029F3D16369192B01D1034B636038BD76
:400B00003CEE00001CEE0000390D000010B504460A2204F12001206900F076FB0028F7D110BD00BF38B504460D4602E0E3690133E361E3694E2B0ADCAB4208DA04F12001C4
:400B40000A221944206900F05FFB0028EED1E0698542CCBF0020012038BD00BF2DE9F04180460F464FF0FF3515E0D8F81C300133C8F81C304344002483F8204005E030469B
:400B800008F072FB00B125460134002D03DA57F824100029F3D1002D0DDAD8F81C104E2909DC08F120060A223144D8F8100000F02BFB0028D9D12846BDE8F08108B5024985
:400BC000FFF7CCFF08BD00BFCC80FF1F38B505460B7813B1032B13D038BD144808F00AF82846FFF7FBFE124C06E001344FF0FF3249B2286900F016FB21780029F5D138BD1B
:400C0000FFF7DCFF014678B905F120042246094807F0A8FF0849204608F026FB10B1074B6B6038BD064B6B6038BD00BF60EE00004CEE000074EE00007CEE0000450C0000E2
:400C40004D0F000010B504460B78022B09D0032B14D0C3B90C4807F0CDFF2046FFF7BEFE10BD436901334361012B01D1FFF7C4FC6369452B07DD0023636110BDFFF79EFF57
:400C800008B9024B636010BD8CEE0000410A000010B504460B7813B1032B0AD010BD0F4807F0A8FF2046FFF799FE2046FFF7ECFC10BDFFF783FF40B9094904F1200008F0DD
:400CC000D3FA50B1074B636010BD012805D1064807F090FF2046FFF7D7FC10BD98EE0000A8EE0000ED0C0000B4EE000038B505460B7813B1032B13D038BD0C4807F07AFF75
:400D00002846FFF76BFE0A4C06E001344FF0FF3249B2286900F086FA21780029F5D138BDFFF74CFF08B9034B6B6038BDD4EE0000C4EE0000A10F000038B505460B7813B1D9
:400D4000032B13D038BD174807F054FF2846FFF745FE154C06E001344FF0FF3249B2286900F060FA21780029F5D138BDFFF726FFB8B90E4905F1200008F076FA10B10C4B65
:400D80006B6038BD2846FFF729FE0A4C06E001344FF0FF3249B2286900F044FA21780029F5D138BD04EF0000E4EE000010EF0000410A0000F4EE00002DE9F04104460F46F9
:400DC000084608F045F8804613E0E5696319002283F8202004F120063946304608F044FA78B92A4604F12101304607F005FE013DE56141462046FFF795FE0028E5D1BDE825
:400E0000F0810120BDE8F08138B505460B78022B19D0032B37D0002B3BD11E4807F0EAFE2846FFF773FE2846FFF7D8FD1A4C06E001344FF0FF3249B2286900F0F3F9217888
:400E40000029F5D138BD436901334361092B20DD00234361836901338361042B08DD0CE001344FF0FF3249B2286900F0DBF900E0094C21780029F3D138BD084807F0BAFE6A
:400E8000074B6B6038BD0749FFF796FF08B1064B6B6038BD20EF000018EF000028EF0000E909000048EF0000AD0E000038B505460B78022B19D0032B35D0002B39D11D48CC
:400EC00007F098FE2846FFF721FE2846FFF786FD194C06E001344FF0FF3249B2286900F0A1F921780029F5D138BD436901334361092B1EDD836901338361022B08DD0CE0C3
:400F000001344FF0FF3249B2286900F08BF900E0094C21780029F3D138BD084807F06AFE074B6B6038BD0749FFF746FF08B1064B6B6038BD58EF000050EF000064EF00006D
:400F4000090E000048EF0000CD0B000038B505460B7813B1032B13D038BD0D4807F04AFE2846FFF73BFD0B4C06E001344FF0FF3249B2286900F056F921780029F5D138BD6C
:400F80000549FFF719FF08B1044B6B6038BD00BFA0EF00008CEF000048EF0000CD0B000038B505460B7813B1032B13D038BD0D4807F020FE2846FFF711FD0B4C06E0013462
:400FC0004FF0FF3249B2286900F02CF921780029F5D138BD0549FFF7EFFE08B1044B6B6038BD00BFC4EF0000B4EF0000D4EF00006D0A000008B503F0C3F9034807F0FAFD76
:40100000002002F00FFB08BDE0EF000008B5064B064ADA62064A9A63064ADA6303F05EFF04F0AAFC08BD00BF0080FF1F913A0000F13A0000353B000000B583B0FFF7E6FF57
:401040004FF4807000F076FAFFF754F9FFF77CFA00F02AF9002401940123009323464FF47A720849084802F0ABF801940223009323464FF47A720549054802F0A1F802F0E0
:40108000E1F8FEE7FCEF0000F50F000004F00000CD1200004FF0A00383F31188BFF36F8FBFF34F8FFEE700BF4FF0A00383F31188BFF36F8FBFF34F8FFEE700BF10B582B00F
:4010C000002301938DF803308DF8023004F068FC8DF803009DF8033013F0200F0FD004F059FC8DF802000C4C002301AA0DF10201206801F01BFD01A9606801F04FFD019B3E
:401100003BB14FF08052054B1A60BFF34F8FBFF36F8F02B010BD00BFC08EFF1F04ED00E000B583B0002301938DF803308DF8023004F044FC8DF803009DF8033013F0020F87
:4011400015D001AA0DF102010F4B986801F068FE012809D19DF8020004F036FC04F02EFC10F0040FEDD002E0002004F021FC019B3BB14FF08052054B1A60BFF34F8FBFF3C7
:401180006F8F03B05DF804FBC08EFF1F04ED00E038B50D4603220021012001F011FC174B586001E004F0F6FB04F0FAFB10F0200FF8D100220121284601F002FC0F4C20600B
:4011C00004F064FC0E4804F053FC00220121284601F0F6FBA06004F02BFC0A4804F01AFC002004F0E5FBA3681BB123681BB9002038BD002038BD012038BD00BFC08EFF1F62
:40120000BD1000002111000008B5054B186801F0F7FC012801D0002008BD012008BD00BFC08EFF1F10B582B002A800F8011D002301460948806801F0DDFB012801D101240B
:4012400000E0002402F036FC032004F0B1FB02F041FC204602B010BDC08EFF1F08B5054B586801F049FD012801D0002008BD012008BD00BFC08EFF1F08B5024B186801F094
:4012800009FE08BDC08EFF1F00B583B002A941F8040D00231A460348006801F0ABFB03B05DF804FBCC8EFF1F10B500220C21202001F086FB044C606000220421202001F07F
:4012C0007FFB206010BD00BFCC8EFF1F10B5ADF5067D58223A490CA807F018FB00240EE0384800F1080104EB840213010B44089300231A4608A9006801F07CFB01341F2CC8
:40130000EEDD314A314962A800F0E8FE8023029322AA0192009342AB47F2305262A968A800F0BEFB40F25B72294962A800F0EEFE014610B1274807F015FC68A800F020FD84
:401340000146012802D0244807F00CFC03238DF83830224B0F930CA968A800F08FFD014618B11F4807F0FEFB02E01E4807F042FC4FF0FF3205A9134B586801F041FC20B936
:401380004FF47A7002F0CAF8F2E700238DF820308DF8213006980A9007F05AFD0B9008AA059968A800F072FD014610B10E4807F0D9FB079B002BDBD006989847D8E700BF29
:4013C00010F00000CC8EFF1F68F0000074F0000084F0000094F00000BCF00000E0F00000E8F0000010F1000020F1000010B584B00C460190642202A90D4B186801F000FC89
:40140000A0B14F222146029807F09EFD0023029A82F84F30074A0392642201A90448406801F0E8FA10B90298FFF72EFF04B010BDCC8EFF1F891200000EB430B596B0054670
:4014400019AB53F8042B1593502101A80AF0FCFF044601A92846FFF7C9FF204616B0BDE8304003B0704700BF00B583B0002301938DF803308DF8023003F044FD8DF8030023
:401480009DF8033013F0200F0BD003F035FD8DF80200002301AA0DF102010848006801F045FB019B3BB14FF08052054B1A60BFF34F8FBFF36F8F03B05DF804FBD498FF1FBF
:4014C00004ED00E000B583B0002301938DF803308DF8023003F024FD8DF803009DF8033013F0020F15D001AA0DF102010F4B586801F096FC012809D19DF8020003F016FDC7
:4015000003F00EFD10F0040FEDD002E0002003F001FD019B3BB14FF08052054B1A60BFF34F8FBFF36F8F03B05DF804FBD498FF1F04ED00E038B5054601E003F0DDFC03F00D
:40154000E1FC10F0200FF8D100220121284601F037FA0B4C206004F079FB0A4804F068FB00220121284601F02BFA606004F040FB054804F02FFB002003F0CCFC38BD00BF29
:40158000D498FF1F69140000C514000008B50A460146054B186801F033FB012801D0002008BD012008BD00BFD498FF1F10B582B002AC04F8010D00230A4621460948406878
:4015C00001F018FA012801D1012400E0002402F071FA032003F09EFC02F07CFA204602B010BD00BFD498FF1F2DE9F04383B001F069FE019003F004FE044604F095F8804636
:4016000003F06EFD064603F0E7FC054604F0F4F8074603F0A9FE814614F0400F09D003F0F5FD044603F0FEFD201A80B25E4BD88008E003F0EBFD044603F042FE201A80B2EF
:40164000594BD88019F0400F09D003F093FE044603F09CFE201A80B2534B988008E003F089FE044603F0E0FE201A80B24E4B988018F0020F09D004F05DF8044604F066F84F
:40168000201A80B2484B188108E004F053F8044604F068F8201A80B2434B188117F0020F09D004F0AFF8044604F0B8F8201A80B23D4B588008E004F0A5F8044604F0BAF88B
:4016C000201A80B2384B588016F0400F09D003F00DFD044603F016FD201A80B2324B588108E003F003FD044603F05AFD201A80B22D4B588115F0400F09D003F073FC0446E1
:4017000003F07CFC201A80B2274B188008E003F069FC044603F0C0FC201A80B2224B1880012004F0F3F80C2003F0E0FD012003F0D1FD0C2004F0DEF8012004F0CFF80C2042
:4017400003F0ECFD012003F0DDFD0C2003F01EFC012003F00FFC0C2004F0B4F8012004F0A5F80C2003F076FE012003F067FE002004F0CCF80A2004F08DFA022003F0B6FD78
:40178000022004F0B7F8022003F0C8FD022003F0FDFB022004F096F8022003F05BFE012101A801F085FE25E7DC98FF1F104BDB68EBB900B583B0012003F0FCFC03F072FDF6
:4017C00003F0FEFF03F0DEFC03F058FC04F060F803F01CFE074B019303230093002364220549064801F0ECFC03B05DF804FB7047DC98FF1FE898FF1F48F10000E9150000AA
:4018000010B40446034B07CB20606160A26010BC704700BFDC98FF1F244B1B889BB2244A1288934202D20023038001E0012303801E4B5B889BB21E4A5288934202D200237E
:40184000438001E001234380184B9B889BB2184A9288934202D20023838001E001238380124BDB889BB2124AD288934202D20023C38001E00123C3800C4B1B899BB20C4AFF
:401880001289934202D20023038101E001230381064B5B899BB2064A5289934202D200234381704701234381704700BFDC98FF1FD880FF1F10B4064C20806180A280BDF8EC
:4018C00008206281BDF804202281E38010BC7047D880FF1F41600260704700BF03684FF6FF72934201D0013300E0012303601846704700BF2DE9F04383B080460E469146E9
:4019000000240C6001250134042C16DCD8F85400C7684B4601220DF10701B84701280CD19DF8073003F07F03326803FB05233360ED019DF90730002BE5DB204603B0BDE890
:40194000F08300BF10B48B68496819441BE01C782F2C01D12F2A1AD12B2A03D0232A01D0A24214D12B2A09D15A1C01E001335A1C8A4206D212782F2AF8D102E0232A00D1E1
:401980004B1E0130013302780AB18B42DFD38B4202D11AB1002002E0002000E0012010BC704700BF2DE9F04780460F469146002411E0D8F85460D6F810A0D8F810502544E6
:4019C000484600F071FB03463A4629463046D047002807DB0444BC4204DA484600F06CFB0028E6D0BC4208D1D8F8181008F1580000F052FB0020BDE8F0874FF0FF30BDE89B
:401A0000F08700BF2DE9F04383B004460E4600230193456DEF68D0F81480084600F044FB0346012241462846B8470546012833D1304600F039FB024601A92046FFF75AFFA4
:401A400060690199013000F0F3FC0130E3681B1A019FBB421CD3002F10DDD4F85480D8F80C9065690544304600F01EFB03463A4629464046C847019B98420CD163691D7877
:401A80002D09A16941B104F1640000F005FB03E06FF0010500E00025284603B0BDE8F08338B504464165002104E0481D002544F8305001310429F8DD62602361049BA360E1
:401AC000059B6361069BE360002323626362237723652046012340F8583B00F0F7FA04F1640000F0F3FA04F1700000F0B7FA38BD2DE9F04182B005460E4690464FF0FF3745
:401B0000002420E0631D55F83310D9B1304600F07FFD30B9631D314655F83300FFF712FF80B1631D05EBC3035B685BB1424631466846FFF7CFFE631D05EBC3035B68684651
:401B4000984700270134042CDCDD57B12B6D43B1424631466846FFF7BDFE2B6D684698470027384602B0BDE8F08100BF836933B310B584B00446583000F09EFA20B904F10B
:401B8000640000F099FAE8B1237FEBB901A800F09DFA4FF47A7101A800F078FAA168206900F0C6FB011E08DD01AA2046FFF7FAFE034658B90122227708E0002306E0002386
:401BC00018467047002301E04FF0FF33184604B010BD00BF002304E05A1D002140F832100133042BF8DD704708B5002303770362436A0BB1FFF7EEFF08BD00BF70B58EB0C3
:401C000005460C46FFF7FEFE06460D2800F28D80DFE800F0858B8507855656858B858B858B8200230D93EB6804936B6903930DAB02930CAB019307AB00930BAB0DF129028C
:401C400006A90DF12A0000F079FB012834D19DF818300EAA02F8103D07A92846FFF748FF9DF8283053B3012B0AD1BDF82C30009300230422A968286900F03EFD01460DE0DC
:401C8000022B0AD1BDF82C30009300230522A968286900F031FD014600E00021002905DD22462846FFF77EFE044601E04FF0FF34B4F1FF3F34D13CE000243AE000242FE0C1
:401CC000EB6800936B690AAA06A907A800F07AFB012815D12869A968052E01D1062200E00722BDF828300093002300F005FD011E09DD22462846FFF755FE044630B907E0D9
:401D00004FF0FF3404E04FF0FF3401E04FF0FF34B4F1FF3F04D10CE000242C7700E000242846FFF723FF10B903E0044601E04FF0FF342CB12B6A23B12846FFF755FF00E06C
:401D4000344620460EB070BD30B585B0054601A800F0BCF905F17004204600F087F94FF4FA7101A800F092F901A92846FFF746FF204600F083F90A2001F0D0FBEAE700BF38
:401D800008B502460249743000F052F908BD00BF491D0000F8B507460E4615464FF0FF34284600F089F940B929463846FFF726FF0446B04201D00028F2DA2046F8BD00BF33
:401DC000F0B59BB004460D46174658222A4901A806F09CFD04F17006304600F047F9236A002B32D117A800F071F9616817A800F04DF905B901AD298BA161AB7E636204F12C
:401E0000640000F049F92A46A168206900F0C4F9011E1DDD17AA2046FFF7C4FD0546F8B917AA02212046FFF7B5FF022813D100233B70384600F8013FE3686269394600F05F
:401E400037FA01280AD13D780AE04FF0FF3507E04FF0FF3504E04FF0FF3501E04FF0FF351DB90123236200232377304600F006F928461BB0F0BD00BF54F1000000B583B0A3
:401E800001AAFFF79DFF03B05DF804FBF0B591B00446154600230B930C930A9100F17007384600F0E3F8236A002B60D00DA800F00DF961680DA800F0E9F82B78013BDBB259
:401EC000012B03D82046FFF709FDA8802B7895F801E0B5F804C0AA68E9680691059202AE0AAA07CA86E80700CDF804C0CDF800E00022A168206900F0B9FB011E3ADD0DAA21
:401F00002046FFF74FFD064600283BD12B78012B15D10DAA04212046FFF73CFF04282CD1E368009363690DF1260209A90DF1250000F048FA012825D04FF0FF3622E0022B90
:401F400020D10DAA07212046FFF724FF072817D1E368009363690DF1260209A90DF1250000F030FA01280DD04FF0FF360AE04FF0FF3607E04FF0FF3604E04FF0FF3601E0D0
:401F80004FF0FF36B6F1FF3F02D12046FFF72CFE384600F073F8304611B0F0BDF0B585B007460E461546039301A801F0E5FB00242A1B31193868FEF7A9FC002801DD044491
:401FC00001E0002808DBAC4207DA03A901A801F0EDFB0028ECD000E00446204605B0F0BDF0B585B007460E461546039301A801F0C3FB00242A1B31193868FEF7ADFC002845
:4020000001DD044401E0002808DBAC4207DA03A901A801F0CBFB0028ECD000E00446204605B0F0BD08B50068FEF7D2FC08BD00BF70B582B006460C461546002001F0F2F826
:40204000019600902B464FF47A720349204601F0B7F802B070BD00BFACF1000010B50446012000F057FD206010BD00BF08B54FF0FF31006800F040FE08BD00BF08B5002366
:402080001A461946006800F0B5FC08BD08B540F8041B01F071FB08BD08B54FF47A7303FB01F1FFF7F3FF08BD10B504460146043001F07CFB206810BD08B50146043001F063
:4020C00075FB012814BF0020012008BD0022034643F8042B42605A60704700BF10B5044608466160A26000232360054BE360054B2361054B63611146FEF77CFB206010BD76
:402100009D1F0000E11F00002520000008B50068FEF7CAFB08BD00BF70B50446037A032B03D0042B03D0002502E00C2500E00A2504F10C0393E8070000F05CFA02300544BE
:40214000E37E7BB104F1240393E8070000F052FA861C04F1300393E8070000F04BFA304402300544236C0BB9A36C3BB104F1400393E8070000F03EFA02300544E36C0BB9CA
:40218000636D33B14C3494E8070000F033FA02300544284670BD00BFF0B583B006460C46154601901046FFF7B7FF074600F080F9A04274DC102101A800F0A8F939460198A7
:4021C00000F036F9019B184401902B7A042B09D1354901A800F0BCF904210DEB010000F095F907E0314901A800F0B2F9032101A800F08CF900246FF30704AB7E63F34104E5
:40220000EB7E003318BF012363F3820414F0040F07D095F83D3063F3C40495F83C3063F345142B6C0BB9AB6C0BB144F08004EB6C0BB96B6D0BB144F04004E1B201A800F044
:4022400065F9298B01A800F067F905F10C030ECB01A800F091F9EB7E5BB105F124030ECB01A800F089F905F130030ECB01A800F083F9E4B214F0800F05D005F140030ECBA5
:4022800001A800F079F914F0400F05D04C3595E80E0001A800F070F90198801B01E06FF0010003B0F0BD00BF7CF00000B8F1000030B583B005460C4602A840F8042D00F07C
:4022C0001FF900F0F000202815D16946019800F003F9019B03440193009B012B0CDD01A800F00EF900F00100287001A800F008F92070012000E0002003B030BD10B582B052
:40230000019001290FDD0023044662F30713194601A800F0FBF80021019800F089F8019B1844001B01E06FF0010002B010BD00BF08B50C22FFF7E2FF08BD00BFF0B583B054
:4023400007460D4614461E460B9B01930023009301A800F0D5F8002360F3070303F0F002302A2BD1C3F3C0023A70C3F341022A60C3F3000323706946019800F0ADF80446D6
:40238000019F07440197009B1F443A4601A9089800F014F998B1019BFB1A002B0FDB2B68002B03DD01A800F0A3F83080019BFF1A0A9A1760099A1360012400E000242046CF
:4023C00003B0F0BD70B582B005460E46144602A840F8043D00F094F8002360F30703C3F3C0023270C3F303132B706946019800F073F8019B03440193009B012B04DD01A822
:4024000000F076F82080012002B070BD30B4002306E0064C2268551C25601278027001338B42F6DB084630BC704700BFF898FF1F30B40546002200E002460C4B0B40002B6D
:4024400003DA013B63F07F030133DBB20C46002901DA01F17F04E111002901DD43F08003501CAB540029E7DC30BC70477F000080F0B583B007460E4600240C6001250134D6
:40248000042C12DC01210DF10700B84701280CD19DF8073003F07F03326803FB05233360ED019DF90730002BE9DB204603B0F0BD431C7F2B01DC02307047B3F5804F01DAAD
:4024C00003307047034A934201DC043070470530704700BFFEFF1F0008B5034B18600348FFF7C6FF08BD00BFF898FF1F0D240000036819785A780233036002EB012070472A
:402500000246036813F8010B1360704703681970036801330360704702680B46002901DA01F1FF03C3F3072313700268531C0360064B0B40002B03DA013B63F0FF0301333F
:402540005370036801330360704700BFFF00008070B505460E46084606F07AFC044601462846FFF7D9FF22463146286806F0CEF92B681C442C6070BD30B585B0054604A86D
:4025800000E90E00029C002C0CDD21462846FFF7C3FF22460399286806F0B8F92B681C442C6009E0019919B12846FFF7D1FF03E000212846FFF7B0FF05B030BD70B5054680
:4025C0000B68D31A012B0FDD0C4616460846FFF78FFF686023681A18964207D3AB60236818442060012002E0002000E0002000232B6070BD00B585B004AB03E90700019817
:4026000010B106F025FC00E0029805B05DF804FB70B50D46046824B1204606F019FC064601E084684668284606F012FC864207D132462946204606F039FC18B1002070BDAE
:40264000002070BD012070BD10B584B0044601A880E80E0007C8FFF7CDFF0230069B1844002C00DD023004B010BD00BF2DE9F04784B00746884692461E46129C0390009475
:402680000EAB0ECB3046FFF7DFFF8146FFF710FF40452BDC0025032363F307156AF3C30566F342059DF8303063F30005E9B203A8FFF72CFF49460398FFF7BAFE039B1844DB
:4026C00003900EAB0ECB03A8FFF756FF002E04DDBDF8341003A8FFF71FFF22461199039806F014F903982044C01B01E06FF0010004B0BDE8F08700BF30B583B001900329C9
:402700001EDD0025044662F3071563F3C305062A14BF0022012262F34205E9B201A8FFF7F5FE02210198FFF783FE019B18440190BDF8181001A8FFF7EFFE0198001B01E0D5
:402740006FF0010003B030BD00F1080343604FF0FF328260C360036100230360704700BF00230361704700BF43684B609A688A609A685160996008610368013303607047D8
:4027800030B40D68B5F1FF3F01D1026907E000F1080200E01A4653681C68A542FAD253684B6099608A605160086103680133036030BC704703694268816891608268416800
:4027C00051605A68904201D182685A60002202611A68013A1A601868704700BF436A23B1036B1868C0F1050070470020704700BF10B5044601F05EF9A26BE36B9A4201D19A
:40280000012400E0002401F065F9204610BD00BF10B5044601F04EF9A36B0BB9012400E0002401F057F9204610BD00BF70B504461646856B026C3AB9036843BB406801F09B
:4028400051F80023636029E06EB9806806F05EF8A268236C1344A3606268934219D32368A36000201AE0C06806F050F8236C5B42E2681A44E26021688A4202D262681344D9
:40288000E360022E07D145B1013D002006E0002004E0002002E0002000E000200135A56370BD00BF026C72B110B5C3681344C3604468A34201D30368C3600C46C168204674
:4028C00006F024F810BD704738B5054601F0F2F895F8454064B20AE06B6A53B105F1240000F010FF08B100F08DFF013C64B2002CF2DCFF2385F8453001F0ECF801F0DAF8FD
:4029000095F8444064B20AE02B6953B105F1100000F0F8FE08B100F075FF013C64B2002CF2DCFF2385F8443001F0D4F838BD00BF38B504460D4601F0BDF82168E26B236C7F
:4029400003FB021060600020A063A160013A02FB0313E360FF2384F8443084F845307DB92369ABB104F1100000F0CCFE80B14FF08052094B1A60BFF34F8FBFF36F8F07E0BB
:4029800004F11000FFF7E0FE04F12400FFF7DCFE01F0A0F8012038BD04ED00E038B51D46049C0B4609B9246000E02260E063236401212046FFF7BCFF84F84C5038BD00BF2D
:4029C000F0B583B0054617460E4611B100FB01F000E00020503001F009F9044638B100903B4600F1500231462846FFF7D7FF204603B0F0BDF0B585B004460F4601921E4674
:402A0000002501F057F8A26BE36B9A4201D3022E21D1324639462046FFF708FF636A6BB104F1240000F06EFE88B14FF08052324B1A60BFF34F8FBFF36F8F08E038B14FF0BB
:402A400080522D4B1A60BFF34F8FBFF36F8F01F041F801204EE0019B1BB901F03BF8002048E01DB902A800F097FE012501F032F800F01EFC01F01EF894F844305BB2B3F1F5
:402A8000FF3F02D1002384F8443094F845305BB2B3F1FF3F02D1002384F8453001F01AF801A902A800F082FEF0B92046FFF7A0FEA0B1019904F1100000F014FE2046FFF763
:402AC00003FF00F089FC00289BD14FF080520A4B1A60BFF34F8FBFF36F8F92E72046FFF7F3FE00F079FC8CE72046FFF7EDFE00F073FC002005B0F0BD04ED00E048B108B55E
:402B0000002141600160C1600B460A46FFF772FF08BD704710B5024600210120FFF750FF0446FFF7EBFF204610BD00BFF8B5EFF311864FF0A00484F31188BFF36F8FBFF3A2
:402B40004F8F856BC46BA54201D3022B1BD11746054690F8454064B21A46FFF767FEB4F1FF3F0AD16B6A83B105F1240000F0CAFD68B177B1012038600CE0013464B285F8B8
:402B80004540012006E0002004E0012002E0012000E0012086F31188F8BD00BF38B5EFF311844FF0A00383F31188BFF36F8FBFF34F8F826BC36B9A4218D290F845305BB25A
:402BC00001328263B3F1FF3F0AD1436A83B10D46243000F097FD68B175B1012028600CE001335BB280F84530012006E0002004E0012002E0012000E0012084F3118838BDBD
:402C0000F0B585B004460F460192002600F052FFA56BC5B139462046FFF744FE013DA563236963B104F1100000F06CFD38B14FF08052304B1A60BFF34F8FBFF36F8F00F01B
:402C400049FF012053E0019B1BB900F043FF00204DE01EB902A800F09FFD012600F03AFF00F026FB00F026FF94F844305BB2B3F1FF3F02D1002384F8443094F845305BB263
:402C8000B3F1FF3F02D1002384F8453000F022FF01A902A800F08AFDF0B92046FFF7B8FDA0B1019904F1240000F01CFD2046FFF70BFE00F091FB0028A8D14FF080520D4BBD
:402CC0001A60BFF34F8FBFF36F8F9FE72046FFF7FBFD00F081FB99E72046FFF7F5FD00F07BFB2046FFF794FD00288FD0002005B0F0BD00BF04ED00E070B584B004460191E5
:402D00000026354600F0D6FEA36BCBB1013BA363236813B900F07AFE6060236963B104F1100000F0EFFC38B14FF080523B4B1A60BFF34F8FBFF36F8F00F0CCFE01206BE003
:402D4000019B1BB900F0C6FE002065E01DB902A800F022FD012500F0BDFE00F0A9FA00F0A9FE94F844305BB2B3F1FF3F02D1002384F8443094F845305BB2B3F1FF3F02D1A8
:402D8000002384F8453000F0A5FE01A902A800F00DFD40BB2046FFF73BFDF0B123683BB900F088FE606800F035FD064600F092FE019904F1240000F095FC2046FFF784FD32
:402DC00000F00AFB00289DD14FF08052134B1A60BFF34F8FBFF36F8F94E72046FFF774FD00F0FAFA8EE72046FFF76EFD00F0F4FA2046FFF70DFD002884D066B100F05AFE98
:402E00002046FFF7EBFC0146606800F0AFFD00F061FE002000E0002004B070BD04ED00E02DE9F041EFF311864FF0A00383F31188BFF36F8FBFF34F8F846BFCB190460746D3
:402E400090F844506DB2FFF72DFD013CBC63B5F1FF3F0DD13B699BB107F1100000F052FC80B1B8F1000F0FD00120C8F800000CE001356DB287F84450012006E0002004E09B
:402E8000012002E0012000E0012086F31188BDE8F08100BF10B5044600F00CFEA46B00F019FE204610BD00BF094B9B6A1B680BB9012300E0002323B14FF0FF32044BDA625F
:402EC0007047034B9A6AD268D2685268DA627047FC98FF1F2DE9F04781460D4617469A46089EDDF824800A9C9200A521206B05F0E7FD236B07F18042013A03EB820727F0C0
:402F00000707002306E0E95CE21882F83410EA5C12B101330B2BF6D9002384F83F30042E00D90426E662A6640025E564201DFFF717FC04F11800FFF713FC2461C6F1050699
:402F4000A66164622565C4F8805484F884544FF48562294604F1580005F0B2FD04F55173E36504F56B73236604F214436366184BC4F88C3004F5807301200021C3E900015B
:402F800043F20E33A4F808314AF6CD33A4F80A3141F23423A4F80C314EF26D63A4F80E314DF6EC63A4F810310523A4F812310B23A4F8143152464946384600F057FD206073
:402FC000B8F1000F01D0C8F80040BDE8F08700BFC0F1000070B5002407E004EB8402930010481844FFF7B0FB0134042CF5D90E4C04F194063046FFF7A7FB04F1A8052846F5
:40300000FFF7A2FB04F11400FFF79EFB04F1BC00FFF79AFB2046FFF797FBA662C4F8D05070BD00BF2C99FF1FFC98FF1F38B5054600F040FD264BD3F8D4200132C3F8D4205F
:40304000D3F8D8304BB9224BC3F8D850D3F8D430012B10D1FFF7BEFF0DE01D4BD3F8DC304BB91B4BD3F8D830DA6AEB6A9A4202D8174BC3F8D850164CD4F8E0300133C4F86F
:40308000E0302B64EB6A012202FA03F1D4F8E4200A43C4F8E42004F1300003EB83039A00291D1044FFF760FB00F014FDD4F8DC306BB1D4F8D830DA6AEB6A9A4207D24FF0B8
:4030C0008052044B1A60BFF34F8FBFF36F8F38BDFC98FF1F04ED00E010B50446583005F09FFD206B00F0DCFD204600F0D9FD10BD38B517E000F0DEFC0D4CD4F8C830DD68F8
:40310000281DFFF757FBD4F8D430013BC4F8D430D4F8E830013BC4F8E83000F0DBFC2846FFF7DAFF024BD3F8E830002BE2D138BDFC98FF1F08B5FFF7DBFFFCE770B50446AA
:403140000E461E4BD3F8EC50D3F8D8000430FFF731FB60B9194BD3F8D820D16A012202FA01F1D3F8E42022EA0102C3F8E420B4F1FF3F07D136B11148D0F8D8100431FFF793
:40318000F3FA70BD2C440D4BD3F8D8305C60A54208D90A4BD3F8D000D3F8D8100431FFF7EFFA70BD054DA86AD5F8D8100431FFF7E7FAEB6A9C4200D2EC6270BDFC98FF1F9B
:4031C0002DE9F04385B006460F4615469846900000F00CFD68B181464FF4916000F006FD044610B1C0F8309004E0484600F058FD00E000248CB10023039302940D9B0193E1
:403200000C9B009343462A4639463046FFF762FE2046FFF70BFF012001E04FF0FF3005B0BDE8F08310B5044600F044FC14B9044BD3F8D840E46A00F04DFC204610BD00BFB6
:40324000FC98FF1F00B583B0144B019300230093642213491348FFF7B3FF01281AD14FF0A00383F31188BFF36F8FBFF34F8F0E4BD3F8D82058320D490A604FF0FF32DA62CF
:403280000122C3F8DC200022C3F8EC2002F06EFC00F078FC03B05DF804FB00BFF099FF1FC4F1000035310000FC98FF1F3085FF1F034AD2F8F0300133C2F8F030704700BFC3
:4032C000FC98FF1F014BD3F8EC007047FC98FF1F2DE9F0413F4BD3F8F030002B66D13D4BD3F8EC700137C3F8EC7067B99A6AD3F8D0109962C3F8D020D3F8F8200132C3F84E
:40330000F820FFF7D1FD334BDB6A9F4205D24FF000083FE04FF0010801E04FF000082D4B9B6A1B680BB9012300E0002323B14FF0FF32284BDA622DE0264B9B6ADB68DC6878
:4033400063689F4202D2234AD36223E0261D3046FFF730FAA36A1BB104F11800FFF72AFAE36A012202FA03F11A4DD5F8E4200A43C5F8E42005F1300003EB83039A003146FE
:403380001044FFF7F1F9E26AD5F8D830DB6A9A42C0D2C4E70F49D1F8D830DB6A03EB83039A000A44136B012B09D80AE0094AD2F8FC300133C2F8FC304FF0000801E04FF051
:4033C0000108044BD3F800310BB14FF001084046BDE8F081FC98FF1F70B500F06BFB324BD3F8F020013AC3F8F020D3F8F030002B53D12D4BD3F8D43043BB002450E02A4C05
:40340000236ADD6805F11800FFF7D4F92E1D3046FFF7D0F9EB6A012202FA03F1D4F8E4200A43C4F8E42004F1300003EB83039A0031461044FFF798F9EA6AD4F8D830DB6A32
:403440009A4204D30122C4F8002100E00025164B5B69002BD3D10DB1FFF726FD124BD3F8FC4064B1FFF734FF18B101220E4BC3F80021013CF6D100220B4BC3F8FC200A4B5E
:40348000D3F800315BB14FF08052084B1A60BFF34F8FBFF36F8F012402E0002400E0002400F018FB204670BDFC98FF1F04ED00E038B505460C46FFF7FBFE164BD3F8EC000D
:4034C0002A681319904205D29A4209D9984209D300220CE09A4207D8984207D3002206E0002204E0012202E0012200E001222B601AB10021181AFFF721FEFFF76DFF38B92A
:403500004FF08052044B1A60BFF34F8FBFF36F8F38BD00BFFC98FF1F04ED00E010B548B10446FFF7C5FE00212046FFF707FEFFF753FF00E0002038B94FF08052034B1A60E5
:40354000BFF34F8FBFF36F8F10BD00BF04ED00E0324BD3F8F03023B10122304BC3F80021704710B52D4C0023C4F8003102F0AEFAD4F80431984205D9D4F8D820C31A116D81
:403580000B441365254BC3F80401D3F8D8301B6B1A68B2F1A53F0BD15A68B2F1A53F07D19A68B2F1A53F03D1DB68B3F1A53F07D01A4BD3F8D800D3F8D8103431FDF76AFD3B
:4035C000164AD2F8E430B3FA83F3DBB2C3F11F039800C418A10011444C6B64684C6302F130011844820008320A44944206D1606803EB83018A0009490A445063074903EBDF
:4036000083039A000A44536BDB68C1F8D830D1F8D8305833024A136010BD00BFFC98FF1F3085FF1F38B5044600F044FA14B92B4BD3F8D840251D2846FFF7BCF880B9E26AC4
:4036400002EB82018B0025490B441B6B43B9012303FA02F2D1F8E43023EA0202C1F8E420A36A1BB104F11800FFF7A4F829461B48FFF77AF894F88434DBB2012B02D10023AB
:4036800084F8843400F026FA144BD3F8DC302BB100F010FAFFF708FC00F01CFA0F4BD3F8D8309C4219D10D4BD3F8DC3043B14FF080520B4B1A60BFF34F8FBFF36F8F38BD8C
:4036C000064B1A68D3F8D4309A4204D10022034BC3F8D82038BDFFF73BFF38BDFC98FF1F04ED00E010B50C46054BD3F8D8101831FFF746F801212046FFF720FD10BD00BFF9
:40370000FC98FF1F38B5C368DC6804F118052846FFF750F8164BD3F8F030B3B9251D2846FFF748F8E36A012202FA03F11048D0F8E4200A43C0F8E420303003EB83039A0024
:4037400029461044FFF710F803E029460948FFF70BF8E26A064BD3F8D830DB6A9A4204D90120034BC3F8000138BD002038BD00BFFC98FF1F1099FF1F10B5044600F09AF97F
:40378000044BD3F8F8202260D3F8EC30636000F0A1F910BDFC98FF1F034BD3F8F8200260D3F8EC3043607047FC98FF1FF8B504460D4600F07FF9124BD3F8EC106268881ADA
:4037C0002B68B3F1FF3F14D027680D4ED6F8F860B74201D091420ED2984206D21B1A2B602046FFF7D9FF002406E000232B60012402E0002400E0012400F06CF92046F8BDE5
:40380000FC98FF1F0122024BC3F80021704700BFFC98FF1F00285CD038B50346C26A2F49D1F8D810C96A8A424AD28169002906DB2A49D1F8D810C96AC1F1050181615869C2
:4038400002EB82029100264A1144884201D1012200E000226AB31C461D1D2846FEF7AAFF80B9E26A02EB82018B001C490B441B6B43B9012303FA02F2D1F8E43023EA020242
:40388000C1F8E4201548D0F8D830DB6AE362012404FA03F1D0F8E4200A43C0F8E420303003EB83039A0029461044FEF75DFF204638BD0A4AD2F8D820D26ADA62012038BD27
:4038C000826C064BD3F8D830DB6A9A4203D3002038BD00207047012038BD00BFFC98FF1F2C99FF1F002838D038B50346C26C013AC264C06A996C884231D092BB1C461D1D91
:403900002846FEF757FF80B9E26A02EB82018B0015490B441B6B43B9012303FA02F2D1F8E43023EA0202C1F8E420A36CE362C3F10502A261012404FA03F10B48D0F8E42017
:403940000A43C0F8E420303003EB83039A0029461044FEF709FF204638BD00207047002038BD002038BD00BFFC98FF1F002848D038B50346826C8A4200D20A46D96A8A42E2
:403980003ED0D86C01283BD1DA629869002802DBC2F105029A61586901EB81018A0019490A44904201D1012200E0002242B31C461D1D2846FEF7FEFE80B9E26A02EB820172
:4039C0008B0011490B441B6B43B9012303FA02F2D1F8E43023EA0202C1F8E420E36A012202FA03F10848D0F8E4200A43C0F8E420303003EB83039A0029461044FEF7B4FEF4
:403A000038BD70472C99FF1FFC98FF1F064BD3F8D8302BB1044BD3F8D820D36C0133D364014BD3F8D8007047FC98FF1F82B0002301934FF0A00383F31188BFF36F8FBFF3F5
:403A40004F8F019B002BFCD002B0704706480068006880F3088862B661B6BFF34F8FBFF36F8F00DF00BF000008ED00E04FF0807340F8043C21F0010140F8081C034B40F8CA
:403A80000C3C40F8202C4038704700BF2D3A0000074B19680868B0E8F00F80F30988BFF36F8F4FF0000080F311884EF00D0E7047D499FF1F4FF0A00383F31188BFF36F8FD0
:403AC000BFF34F8F024A136801331360704700BFE480FF1F034A1368013B13600BB983F311887047E480FF1F0000000000000000EFF30980BFF36F8F0D4B1A6820E9F00F50
:403B000010602DE908404FF0A00080F31188FFF71FFD4FF0000080F31188BDE8084019680868B0E8F00F80F30988BFF36F8F7047D499FF1F08B54FF0A00383F31188BFF3A4
:403B40006F8FBFF34F8FFFF7C3FB18B14FF08052024B1A60002383F3118808BD04ED00E0054B00221A6005490A6045F6BF51044A116007221A60704710E000E018E000E0EA
:403B800014E000E010B50B4B1A6842F460021A601A6842F060421A60FFF7E2FF0024064B1C60FFF753FFFFF7D3FCFFF73FFF204610BD00BF20ED00E0E480FF1F094A22F0E3
:403BC0000702094BC3F840280020C3F8440848F6F871C3F84C18C3F84808516003F64803136070470C9AFF1FC421002070B50446FFF75EFB264BD3F850382BB9FFF7DEFF2C
:403C00000122234BC3F8502834B1083414F0070F02D024F007040834621E48F6F6739A422BD81B49D1F8403801F5046101E0194613465A68944202D91A68002AF7D1154A73
:403C400093421CD00D6808351A680A605A68121B102A0CD91E1972605C6074680E4900E011460A6850688442FAD832600E6059680A4A13685B1A136002E0002500E0002562
:403C8000FFF7AAFB0DB9FDF70FFA284670BD00BFC42100200C2A0020042A0020E880FF1FD0B170B50546A0F10806FFF701FB55F8044C0A4A00E01A46136859688C42FAD88E
:403CC00045F8083C166055F8043C054A11680B441360FFF781FB70BD704700BF042A0020E880FF1F38B50446FFF7ECFA05462C2C0BDC00210846FCF771FA00223221FF20CF
:403D0000FCF760FA4FF4FA7065E0592C0BDC00210846FCF763FA00223221FF20FCF752FA4FF4AF7057E0862C0BDC00210846FCF735FA00223221FF20FCF744FA4FF4C87043
:403D400049E0B32C0BDC00210846FCF727FA00223221FF20FCF736FA4FF4FA703BE0E02C0BDC00210846FCF719FA0022FF213220FCF728FA4FF4FA702DE0B4F5877F0BDAF3
:403D800000210846FCF70AFA0022FF213220FCF719FA4FF4C8701EE0B4F59D7F0BDC00210846FCF71BFA0022FF213220FCF70AFA4FF4AF700FE0B4F5B47F0BDA002108465B
:403DC000FCF70CFA0022FF213220FCF7FBF94FF4FA7000E00020284438BD00BF00000000F0B583B08DE803006846FCF78DFB00264FF08047BDF9000003F0C6FB32463B467A
:403E000002F03CF904460D46BDF9020003F0BCFB32463B4602F032F906460F4632463B462046294603F064FA02F0C0FA18A3D3E9002303F09FFE10B3BDF9000003F0A4FBA5
:403E400006460F46BDF90240204603F09DFB02460B463046394603F027FD01F06DFF0EA3D3E9002303F0F6FB00220F4B03F040FA002C07DA00220D4B03F03AFA02E008A160
:403E8000D1E9000103F096FE03B0F0BDAFF30080000000000070B740F8C1631ADCA54C400000000000907640008056400080664010B50446FFF706FA2346024602490348C6
:403EC000FDF7BAFA10BD00BFF4F10000FCF1000070B5064600210846FCF760F9FFF7F2F90546074C024621460648FDF7A5FAFCF751F9AA1B21460448FDF79EFA70BD00BF54
:403F000008F200000CF200001CF2000010B582B00446FCF723F9FDF749FC42F228300190009042F6F8231A460146FDF7C3FCFCF72DF904220549204604F0B8FF18B1FCF73E
:403F4000CBFAFCF7AFF902B010BD00BF54F2000010B50C460146044804F0FCFE22460349FDF76AFA10BD00BF2CF2000038F2000030B585B001AB83E807001846FDF740FC1F
:403F8000BDF8040003F000FB0022354B03F062FB04460D46BDF8060003F0F6FA0022314B03F058FB02460B462046294603F0A0F904460D46BDF8080003F0E6FA00222A4B8B
:403FC00003F048FB02460B462046294603F090F904460D46BDF80A0003F0D6FA0022234B03F038FB02460B462046294603F080F904460D46BDF80C0003F0C6FA00221C4B58
:4040000003F028FB02460B462046294603F070F904460D46BDF80E0003F0B6FA0022154B03F018FB02460B462046294603F060F90022114B03F038FC03F0E4FD0446002177
:4040400003F07EFE10B10025FF2001E0FF25002000F0F4FB284600F0F7FB204605B030BD00803DC0000030C0000013C0000013400000304000803D400000184030B585B0FE
:4040800001AB83E807001846FDF7C6FBBDF80420BDF80610BDF80830BDF80A50BDF80C40BDF80E000A401A4005EA02032340184214BF0120002005B030BD00BF10B584B0A8
:4040C00004AB03E90700FFF7FDF8044602460B490B48FDF7B1F921460A48FFF739FF00213220FCF75BF804AB13E90700FFF7C6FF0028F8D1204604B010BD00BF08F20000BE
:404100005CF2000064F2000010B584B0044604A800E90E0001F0F2FA0028FBD14FF4FA70FFF7FCF900213220FCF738F804AB13E90700FFF7A3FF0028F8D000210846FCF75A
:404140002DF8224603490448FDF776F9FBF7E6FF04B010BD78EE00006CF2000000B585B001AB83E807001846FDF756FBBDF80400BDF806300344BDF808000344BDF80A0042
:404180000344BDF80C000344BDF80E00184405B05DF804FB38B504460D46C8B200F0D2FEB5FA85F0400900F0D9FEE4B2204600F045FB204600F048FB4FF4A070FFF7AEF9DB
:4041C00038BD00BF000000002DE9F04F8BB004AC0026049605960696ADF80860ADF80A60ADF80C60644D2846FFF790FE94E80E002846FFF789FF94E80700FFF75FFF019026
:404200003446B346B14635464FF0FF384746A1E002AB93E80300FFF7E3FD824603F0B4F953A3D3E9002303F087FCD0B1FFF74AF8801BC82815D9A4B9B9F1000F06D0002122
:40424000C820FBF7ABFF4FF0000901251DB95046FFF748FD07465046FFF72AFEFFF732F80646FFF72FF8874216D2FCF73DF8092809DC0021FF20FBF791FF01244FF0000BFB
:404280004FF0FF3708E00021C820FBF787FF4FF0000B01254FF0FF371CB913E01420FFF73DF9FCF721F80E2806DC04AB93E80700FFF754FF0128F1DD0021C820FBF76EFF16
:4042C0000024012504AB93E80700FFF747FF012822DD0AAB13E90700FFF74AFE274903F04DFD68B104AB93E80700FFF737FF002806DD04AB93E80700FFF730FF0528E8DD73
:40430000FEF7E0FF00F2DC580021C820FBF766FF4FF0010900251DE0FEF7D4FF80450BD201219620FFF736FF4FF0010B4FF000094D464FF0FF380DE0BBF1000F0AD0FBF73B
:40434000D3FF092806DC0021FF20FBF727FF01244FF0000B01F0D2F900287FF459AF0198FFF7B6FD0BB0BDE8F08F00BFAFF300800000000000907640CCF200000000C84222
:4043800008B5FFF721FFC820FFF7C8F8FBE700BFFEE700BFF0B40022174611E050F82760F3B226F0FF0608E001EB420511F812406D78A5550132013BDBB2002BF4D101372B
:4043C000282FEBD9F0BC704708B50A46002104F077FB08BDF8B5174B1B78DBB2164E3478E4B2164F3D78EDB203F00701144A11701B090132137044F00303337045F003038C
:404400003B7020220F4B1A7040230F490B7002310B70022301F21D210B7003310A700B4A13700A2001F036FC3D7034704422084B1A70F8BDCF010049F8460040F9460040C4
:404440006E5800402D51004009590040585B00407658004008B504F059FA08BD38B5484C2578EDB21722474B1A80182346490B7002310A80454A1370192204310A800231A9
:404480000B7002310A80424A137077210232118002321370EF21023211800232137004223C493D48FFF7D6FF02223C4B1A7008224FF040231A70F32203F20A331A70032398
:4044C00023708422364B1A700522013B1A70354C04E04FF4F07001F01FFC013C24B1324B1B7813F0200FF4D0254B1D700322A3F593631A702D4B1B78DBB22D4A1370082269
:404500002C4B1A8041F25122023B1A80002419250CE0294B1B7803F0010343EA440404F003044FF4F07001F0F7FB013D0DB1032CEFD115B90320FFF72BFF204B4FF480720F
:404540001A8007221A7000221D490A704820023108701A700222033B1A7004220A331A70184A137843F03F031370013A137843F001031370013A137843F08003137038BD1D
:40458000984600408040004082400040864000408E4000401C120048004100400043004009430040A08601000843004008010049A1460040224200402542004004400040C7
:4045C00006400040A243004038B572B63B4A137843F00403137000240CE0394D630019194A0011462A44084691882858FFF7ECFE0134E4B2082CF0D900240CE03048A2003B
:4046000011194B000344B3F84020D96B986BFFF721FF0134E4B2032CF0D92A494FF09040FFF7B8FE284A137843F0020313701032137843F002031370244C237843F04003A4
:404640002370A2F58632513A137843F01003137008221F491F48FFF7FDFE0A221E491F48FFF7F8FE08221E491E48FFF7F3FE0A221D491E48FFF7EEFE0A221D491D48FFF704
:40468000E9FE08221C491D48FFF7E4FE1C4A137843F0080313701B4D61232B70FFF7DEFE81232B700122184B1A70FFF793FE0E2221461648FFF7CEFE38BD00BFE84600408D
:4046C0001CF30000A400004803500140A0430040E011004802510040E8110048C0510040F4110048F2510040FC1100481051004008120048205100401412004832510040A0
:40470000224300400048004004000840B043004008B503F03DFB03680C2B00D1FEE7FEE708B5094B1A681044084BC31AB3F5005F02DC054B186005E003F02AFB0C23036055
:404740004FF0FF32104608BDEC80FF1F402B002008B5104E104D16E029686B68AC68002204E051F8040B43F8040B0432A242F8D1E868002203E0002143F8041B043282425E
:40478000F9D11035013E002EE6D103F0B9FDFCF753FCFEE701000000ACF5000008B5104A104B1A60104A136843F40073136000230AE0032B03D80D4A52F8231000E00C4957
:4047C0000C4A42F8231001332F2BF2D90A4B1A780A4B1A70074A0A4B1A60FFF7F5FE08BD0004FA050CED00E014ED00E000000000114700000080FF1FBC760040C080FF1F86
:4048000008ED00E0024A137843F080031370704776640040024A137803F07F031370704776640040014B1870704700BF06650040014B1870704700BF46650040014B187024
:40484000704700BF26650040014B1870704700BF36650040014B1870704700BF86640040014B1878704700BF66640040014B1878704700BF5665004008B501E0FFF7F6FF2C
:40488000FFF7EEFF10F0100FF8D108BD08B5144A137803F0C00343F00903137002F59072137843F001031370FF20FFF7BBFFFF20FFF7BEFF0020FFF7C1FF0020FFF7C4FFBC
:4048C0000020FFF7C7FF01F02FFA064A137843F01003137001F02CFAFFF7CEFF08BD00BF766400409664004008B5054B1B7823B9FFF7CCFF0122024B1A70FFF783FF08BDF8
:40490000182A002038B50222114B1A7081220E3B1A70082202331A700F2511331D70002401331C704FF400420A4B1A600721284601F0CEF90849284601F0B6F91022074B51
:404940001A70074B1C70074B1C70074B1C7038BDD649004080E100E0B9490000282B00202E2B0020362B00202C2B002008B501F0DBF9064A137843F00403137010321378B1
:4049800043F00403137001F0D3F908BDA543004008B5074B1B7823B9FFF7B4FF0122044B1A70FFF7E3FF4FF40042024B1A6008BD192A002000E100E038B5A54B1C78A54BFF
:4049C0001B7813F0400F00F03A81E4B214F0010F00F01D819F4B1B78453B052B00F21481DFE813F006008200120112010600DF0004F0DF0504F00A04082C42D1954B1B784A
:404A0000DBB2452B35D1944B1B7813F0FF0F10D0924B1B681B78DBB2914A137004228C4B1A7001228F4B1A7046228A4B1A702C46EDE08D4B1B7813F0020F0DD08B4A137862
:404A400043F00A0313706022824B1A704FF40042874B1A602C46DAE0864A137843F0100313701022844B1A700422023B1A702C46CDE00022764B1A704A22764B1A702C464C
:404A8000C5E00A2C2BD1794A137843F0A0031370754B1B7813F0020F14D06E4B1B7813F0080F01D0092300E00A23704A11780B4313706022674B1A704FF400426C4B1A6035
:404AC0002C46A4E06B4A137843F0100313701022694B1A700422023B1A702C4697E0002001F0D6F82C4692E014F0020F36D15D4B1A78D2B2584B1B78DBB29A4210D2594AB0
:404B00001378DBB255490968CB5CDBB254490B7004214F4B197013780133DBB2137076E0514B1B7813F0020F0CD0504A137843F00A0313706022474B1A704FF400424C4B54
:404B40001A6064E04B4A137843F0100313701022494B1A700422023B1A7058E0424B1B7813F0020F0CD0414A137843F09A0313706022384B1A704FF400423D4B1A6046E064
:404B80003C4A137843F01003137010223A4B1A700422023B1A70354A137843F09003137035E0364A1378DBB2354908682C490978C9B2C15413780133DBB213701278D2B29C
:404BC000304B1B78DBB29A4203D21022204B1A701DE0254B1B7813F0020F0CD0234A137843F00903137060221A4B1A704FF400421F4B1A600BE01F4A137843F01003137016
:404C00000022134B1A7002E0002001F041F814F0200F1CD00F4B1B7813F0080F01D0012300E00223114A11780B431370114A137803F0EF0313701022064B1A7038BD054BC9
:404C40001B7813F0100F02D11022024B1A7038BDD7490040282B00202D2B0020382B0020D84900402C2B0020342B00202E2B002080E100E0D6490040D9490040362B00208D
:404C8000302B0020352B0020002948D070B40C4626490978C9B2102906D12549097811F0080F11D1002112E020490978C9B260290CD14FF400451F490D601F4D297801F0A5
:404CC000F7012970002102E0012100E0022149BB4526164D2E700026184D2E70184D2A70184A1460184A1370134C227802F0FD0222704200D2B21548027013F0010F06D0AE
:404D000012220B4B1A700422023B1A7002E00122074B1A704FF400420D4B1A6002E0022108467047084670BC704700BF282B0020D949004080E200E02E2B00202C2B002039
:404D40002D2B0020382B0020342B0020D849004000E100E000294AD070B40C4627490978C9B2102906D12649097811F0080F11D1002112E021490978C9B260290CD14FF456
:404D8000004520490D60204D297801F0F7012970002102E0012100E0022159BB4926174D2E700026194D2E70194D2A70194A1460194A1370144C227802F0FE0222704200F4
:404DC000D2B242F001021548027013F0010F06D012220B4B1A700422023B1A7002E00122074B1A704FF400420D4B1A6002E0022108467047084670BC704700BF282B00209C
:404E0000D949004080E200E02E2B0020362B0020352B0020302B0020342B0020D849004000E100E04FF40042084B1A60084B1878C0B2084B1B7813F0400F01D040F0040054
:404E40004FF40042044B1A60704700BF80E100E02E2B0020282B002000E100E04FF40043044A1360044A107800211170034A1360704700BF80E100E02E2B002000E100E010
:404E80007222074B1A70202203331A700622623B1A70472210331A700022AC3B1A7070478465004010B500F03FFF04460A4A137843F0200313700332137843F0100313700A
:404EC000FE3A137843F01003137000F0C5FE204600F02EFF10BD00BF9465004008B5054B1B7823B9FFF7CCFF0122024B1A70FFF7D9FF08BD1A2A0020014B1878704700BFAB
:404F000044650040024B187800F07F00704700BF67650040014B1870704700BF89640040014B1878704700BF69640040034B1B7813F0040FFAD1024B187070476964004089
:404F400047650040044A137803F07F03C001C0B218431070704700BF30510040044A137803F0FE0300F0010018431070704700BFF0510040044A137803F0DF03400100F043
:404F80002000184310707047F0510040044A137803F0F10300F00E0018431070704700BF7D500040084A137843F0020313701032137843F00203137002F65932137843F041
:404FC00001031370704700BFA3430040014B1870704700BF0F4F0040014B1878704700BF0F4F0040014B188880B27047104F0040014B1880704700BF104F0040014B18885D
:4050000080B27047144F0040014B1880704700BF124F004008B5164A137803F0010313700232137803F0FC031370124B1A7802F0CF021A701A7842F030021A701A7802F053
:40504000F0021A701A7842F00F021A700A4A137843F0010313704FF6FF70FFF7C9FF4FF6FF70FFF7D1FF0820FFF7B0FF08BD00BF0C4F0040174F00400D4F004008B5054B95
:405080001B7823B9FFF7C6FF0122024B1A70FFF789FF08BD1C2A0020024B1B88024B188880B27047124F0040144F0040084A137843F0080313701032137843F008031370ED
:4050C00002F67132137843F001031370704700BFA3430040014B1870704700BF274F0040014B1878704700BF274F0040014B188880B27047284F0040014B1880704700BF46
:40510000284F0040014B188880B270472C4F0040014B1880704700BF2A4F004008B5164A137803F0010313700232137803F0FC031370124B1A7802F0CF021A701A7842F0BF
:4051400030021A701A7802F0F0021A701A7842F00F021A700A4A137843F0010313704FF6FF70FFF7C9FF4FF6FF70FFF7D1FF0820FFF7B0FF08BD00BF244F00402F4F0040CD
:40518000254F004008B5054B1B7823B9FFF7C6FF0122024B1A70FFF789FF08BD1D2A0020024B1B88024B188880B270472A4F00402C4F0040044A137803F0FD03400000F02A
:4051C000020018431070704700510040084A137843F0040313701032137843F00403137002F66532137843F001031370704700BFA3430040014B1870704700BF1B4F004002
:40520000014B1878704700BF1B4F0040014B188880B270471C4F0040014B1880704700BF1C4F0040014B188880B27047204F0040014B1880704700BF1E4F004008B5164A45
:40524000137803F0010313700232137803F0FC031370124B1A7802F0CF021A701A7842F030021A701A7802F0F0021A701A7842F00F021A700A4A137843F0010313704FF6FC
:40528000FF70FFF7C9FF4FF6FF70FFF7D1FF0820FFF7B0FF08BD00BF184F0040234F0040194F004008B5054B1B7823B9FFF7C6FF0122024B1A70FFF789FF08BD1E2A002019
:4052C000024B1B88024B188880B270471E4F0040204F0040044A137803F0EF03000100F01000184310707047C0510040044A137803F0F10300F00E0018431070704700BFDB
:4053000064500040044A137803F0EF03000100F01000184310707047F0510040044A137803F0F10300F00E0018431070704700BF7C500040084A137843F0010313701032B3
:40534000137843F00103137002F64D32137843F001031370704700BFA3430040014B1870704700BF034F0040014B1878704700BF034F0040014B188880B27047044F004068
:40538000014B1880704700BF044F0040014B188880B27047084F0040014B1880704700BF064F004008B5164A137803F0010313700232137803F0FC031370124B1A7802F06E
:4053C000CF021A701A7842F030021A701A7802F0F0021A701A7842F00F021A700A4A137843F0010313704FF6FF70FFF7C9FF4FF6FF70FFF7D1FF0820FFF7B0FF08BD00BF9D
:40540000004F00400B4F0040014F004008B5054B1B7823B9FFF7C6FF0122024B1A70FFF789FF08BD1F2A0020024B1B88024B188880B27047064F0040084F0040044A13780B
:4054400003F0EF03000100F0100018431070704730510040044A137803F0F10300F00E0018431070704700BF1C500040014B1878C009704711510040044A137803F07F03EC
:40548000C001C0B218431070704700BF00510040024A137843F08003137070477D640040014B1870704700BF8D640040014B1878704700BF6D640040014B1880704700BFB7
:4054C00058680040014B188880B2704798680040014B1880704700BF1868004000F00300044B1A7802F0FC021A701A7810431870704700BF7D64004008B501E0FFF7E2FFB6
:40550000FFF7D4FF10F0080FF8D108BD08B54FF6FF70FFF7D1FF4FF6FF70FFF7D9FF00F003FC084A137843F01003137000F000FC0020FFF7D3FFFFF7DFFF0320FFF7B0FF3F
:4055400008BD00BF9D64004008B5054B1B7823B9FFF7DCFF0122024B1A70FFF799FF08BD202A0020024B187800F00100704700BF21510040014B1B681866704708ED00E093
:405580004001C0B2014B1870704700BF08E400E04FF48072014B1A60704700BF00E100E04FF48072014B1A60704700BF80E100E010B50446FFF7F4FF2046FFF7DBFF0720E9
:4055C000FFF7DEFFFFF7E4FF10BD00BF014B1B681864704708ED00E04001C0B2014B1870704700BF00E400E00122014B1A60704700E100E00122014B1A60704780E100E099
:4056000010B50446FFF7F6FF2046FFF7DFFF0720FFF7E2FFFFF7E8FF10BD00BF024A137843F08003137070477B640040014B1870704700BF8B640040014B1878704700BF1E
:405640006B64004008B50146014800F059FB08BD26640040024B186820F07F40704700BF4664004008B50146014800F049FB08BD0664004000F00300044B1A7802F0FC024B
:405680001A701A7810431870704700BF7B64004008B501E0FFF7DEFFFFF7CEFF10F0080FF8D108BD08B56FF07F40FFF7CBFF6FF07F40FFF7D7FF00F037FB084A137843F0CE
:4056C0001003137000F034FB0020FFF7D3FFFFF7DFFF0220FFF7AAFF08BD00BF9B64004008B5054B1B7823B9FFF7DCFF0122024B1A70FFF793FF08BD212A0020024B1878D9
:40570000C0F38000704700BF21510040024A137843F08003137070477F640040014B1870704700BF8F640040014B1878704700BF6F640040014B188880B270475C68004069
:40574000014B1880704700BF5C680040014B188880B270479C680040014B1880704700BF1C680040024B1B78024B188880B270470E6400409C68004008B501E0FFF7E6FF6F
:40578000FFF7D2FF10F0080FF8D108BD08B54FF6FF70FFF7D5FF4FF6FF70FFF7DDFF00F0C3FA064A137843F01003137000F0C0FAFFF7E2FF0120FFF7B1FF08BD9F6400401B
:4057C00008B5054B1B7823B9FFF7E0FF0122024B1A70FFF79BFF08BD222A0020024A137843F08003137070477C640040014B1870704700BF84640040014B1878704700BFF2
:4058000064640040014B188880B2704752680040014B1880704700BF52680040014B188880B2704792680040014B1880704700BF12680040024B1B78024B188880B2704764
:40584000096400409268004008B501E0FFF7E6FFFFF7D2FF10F0080FF8D108BD08B54FF6FF70FFF7D5FF4FF6FF70FFF7DDFF00F05BFA064A137843F01003137000F058FA70
:40588000FFF7E2FF0120FFF7B1FF08BD9464004008B5054B1B7823B9FFF7E0FF0122024B1A70FFF79BFF08BD232A0020044A137803F0BF03800100F040001843107070476F
:4058C00020510040044A137803F0F10300F00E0018431070704700BF16500040044A137803F07F03C001C0B218431070704700BF20510040044A137803F0F10300F00E0001
:4059000018431070704700BF17500040014B1870704700BF736400407222084B1A702022013B1A700622A3F5B4731A70472210331A70002252331A70704700BF8A65004018
:4059400010B500F0F1F904460A4A137843F020031370013A137843F010031370A2F58372137843F01003137000F084F9204600F0DFF910BD9A65004008B5054B1B7823B9F4
:40598000FFF7CAFF0122024B1A70FFF7D9FF08BD242A0020014B1878704700BF49650040024B187800F07F00704700BF69650040014B1870704700BF83640040014B1878D0
:4059C000704700BF63640040034B1B7813F0040FFAD1024B187070476364004040640040014B1B689865704708ED00E04001C0B2014B1870704700BF06E400E04022014B24
:405A00001A60704700E100E04022014B1A60704780E100E010B50446FFF7F6FF2046FFF7DFFF0620FFF7E2FFFFF7E8FF10BD00BF4022014B1A60704780E200E0014B1B68CA
:405A40005865704708ED00E04001C0B2014B1870704700BF05E400E02022014B1A60704700E100E02022014B1A60704780E100E010B50446FFF7F6FF2046FFF7DFFF06203D
:405A8000FFF7E2FFFFF7E8FF10BD00BF2022014B1A60704780E200E0024A137843F080031370704770640040014B1870704700BF85640040014B1878704700BF65640040FC
:405AC000014B1860704700BF02640040024B1B78024B1868704700BF0264004042640040014B1868704700BF42640040014B1860704700BF22640040014B1860704700BFB5
:405B00003264004008B501E0FFF7EAFFFFF7D2FF10F0400FF8D108BD08B5124B1A7802F0F8021A701A7802F0FC021A70FFF7EAFF6FF00100FFF7DAFF0020FFF7C1FF00203C
:405B4000FFF7B2FFFFF7B6FF0020FFF7D5FF00F0EBF8054A137843F01003137000F0E8F808BD00BF706400409564004008B5054B1B7823B9FFF7D0FF0122024B1A70FFF7A1
:405B80008BFF08BD262A0020044A137803F0FE0300F0010018431070704700BF30510040014B1B681865704708ED00E04001C0B2014B1870704700BF04E400E01022014B3B
:405BC0001A60704700E100E01022014B1A60704780E100E010B50446FFF7F6FF2046FFF7DFFF0720FFF7E2FFFFF7E8FF10BD00BF1022014B1A60704780E200E0014B1B6868
:405C0000D864704708ED00E04001C0B2014B1870704700BF03E400E00822014B1A60704700E100E00822014B1A60704780E100E010B50446FFF7F6FF2046FFF7DFFF07202D
:405C4000FFF7E2FFFFF7E8FF10BD00BF0822014B1A60704780E200E0054A137843F0040313701032137843F004031370704700BFA2430040054A137843F008031370103262
:405C8000137843F008031370704700BFA243004001BE704708B5034B1B7A00FB03F000F03BF808BDF080FF1F70B504460E46074B1D681F2802D90020FFF7EAFF04F01F04B1
:405CC000103455F8240045F8246070BD08ED00E038B504460D46072902D90020FFF7D8FF1F2C02D90020FFF7D3FF04F01F0000F1604000F564406D01EDB2057038BD00BF29
:405D0000CBB20370C1F307234370C1F307418170704700BF000000000230800803D000BF01380046FCD17047EFF3108072B6704780F31088704700BF2DE9F84FC04B21F0E5
:405D400000469E420D468A4604460FDDBD4B9E4200F3B28000F0AD80BB4BBC49BC4CBAF1000FC8BF19462046BDE8F88FB94B9E4200F3BC80A3F1DE739E4240F3A7804FF0C4
:405D8000FF3B22462B462046294601F063FC02460B468046894601F05DFC91A3D3E9002306460F4601F056FC8FA3D3E9002301F09FFA32463B4601F04DFC8DA3D3E900235F
:405DC00001F096FA32463B4601F044FC8AA3D3E9002301F08DFA32463B4601F03BFC88A3D3E9002301F084FA32463B4601F032FC85A3D3E9002301F07BFA42464B4601F04B
:405E000029FC83A3D3E90023804689463046394601F020FC80A3D3E9002301F067FA32463B4601F017FC7EA3D3E9002301F05EFA32463B4601F00EFC7BA3D3E9002301F025
:405E400055FA32463B4601F005FC79A3D3E9002301F04CFA32463B4601F0FCFBBBF1FF3F02460B4669D04046494601F041FA22462B4601F0EFFB784E784B4FEACB0B5E44EA
:405E80009B44DBE9002301F031FA22462B4601F02DFA02460B46D6E9000101F027FABAF1000F0446BFF65FAF01F100412046BDE8F88F00283FF450AF224620462B46294610
:405EC00001F016FA04462046BDE8F88F5AA3D3E9002301F00DFA0022614B01F04BFE00283FF44DAF29462046BDE8F88F00F0C2F85C4B04469E420D462FDCA3F550239E42CD
:405F000054DC02460B4601F0F3F90022544B01F0EDF9002206460F464FF080432046294601F0E6F902460B463046394601F0BCFC4FF0000B04460D4623E74046494601F08B
:405F4000D7F922462B4601F085FB02460B462046294601F0CBF9044605E7434B9E421ADC0022424B01F0C2F9002206460F463F4B2046294601F06EFB0022394B01F0B8F92B
:405F800002460B463046394601F08EFC4FF0020B04460D46F5E602460B460020344901F083FC4FF0030B04460D46EAE600222C4B01F09CF9002206460F46294B2046294689
:405FC00001F096F902460B463046394601F06CFC4FF0010B04460D46D3E600BFAFF3008011DA22E33AAD903FEB0D76244B7BA93F513DD0A0660DB13F6E204CC5CD45B73FCA
:40600000FF8300922449C23F0D5555555555D53F2F6C6A2C44B4A2BF9AFDDE522DDEAD3F6D9A74AFF2B0B33F711623FEC671BC3FC4EB98999999C93F9C7500883CE4377EAC
:40604000FFFF0F440000F07FFB21F93FFB21F9BF182D4454FFFFDB3FA0F3000080F300000000F03FFFFFF23FFF7F03400000F83F0000F0BF21F00041704700BF2DE9F04F1B
:406080008DB006460F4614461D4600F0EDF9DFF81093CDE9000199F90080B8F1FF3F46D022462B462046294601F06EFD834600283DD132463B463046394601F065FD82461D
:4060C000002874D1304639460022002301F02AFD002833D0002200232046294601F022FD8346B8B1A94A012300200021CDF828A0CDE90467CDE90645CDE90801039202936A
:40610000B8F1000F6CD0A24B0022104619460DB0BDE8F08F2046294600F0CCFF38B1002200232046294601F007FD00286AD1DDE90023104619460DB0BDE8F08FDDE9000195
:4061400000F0B8FF804600287DD0DDE900014FF0000A4FF0000B52465B4601F0E3FC0028E5D03046394600F0A5FF0028DFD02046294600F09FFF0028D9D099F900308348DC
:4061800004210022022BCDE90467CDE90645CDE908AB039002910A9204D002A800F090FF002847D101F0F4FD2223036042E0002200232046294601F0B5FC0028B7D0744B0B
:4061C000724800220121B8F1020FCDF828B0CDE90467CDE90645CDE9082303900291A8D002A800F06DFF00287ED00A9B43B301F0CFFDDDE908230A990160104619460DB06E
:40620000BDE8F08F614999F900300122CDF828B0CDE90467CDE9064503910292002B68D05C490020022BCDE9080166D101F0B0FD212303600A9B1BB101F0AAFD0A9B036023
:40624000DDE9082375E73046394600F033FF00283FF47BAF2046294600F02CFF00283FF474AFDDE900231046194601F08DFC00286FD1464B99F90080039303230A90CDE998
:406280000467CDE906450293B8F1000F3BD1DFF814B14FF0604A0022002330463946CDE908AB01F049FC00283FF477AF00223A4B2046294601F0CEF904460D4600F008FF72
:4062C00002460B462046294601F02CFC00283DD1324B4FF06042CDE9082399F90080B8F1020F7FF45AAF5DE701F052FD212303607BE700230024CDE9083402A800F0E0FE1C
:40630000002897D192E7DFF8A0B04FF0000A0022002330463946CDE908AB01F00DFC0028DDD000221C4B2046294601F093F904460D4600F0CDFE02460B462046294601F0E0
:40634000F1FB18B9134B0022CDE9082399F90080C5E70E4A99F900900123CDF82880CDE90467CDE9064503920293B9F1000FC0D0002200231046194601F096FAB9F1020F6B
:40638000CDE908013FF452AFB7E700BFC0F300000000F03F0000F0FF0000E03FFFFFEFC70081FF1FFFFFEF470000F07F2DE9F04F8BB004460D4600F0B9FD284B064693F989
:4063C00000A00F46BAF1FF3F12D022462B462046294601F0D9FB834650B94FF000084FF000092046294642464B4601F0A5FB20B9304639460BB0BDE8F08F194A0123CDF891
:4064000020B0CDE90445CDE9024501920093BAF1000F15D042464B464046494601F044FABAF1020FCDE906010CD101F0B1FC21230360089B63B9DDE906010BB0BDE8F08F68
:40644000CDE90689684600F03BFE0028F1D1ECE701F09EFC089B0360EDE700BF0081FF1FC4F30000000000002DE9F04F23F0004858EA020993B03CD0714C21F00046A64281
:4064800083460D460CDD06F1404606F5801656EA0B0038D183466B49584613B0BDE8F08F9A4696462BD0A045EDDC654CA04578D0002D0F468146CDE9002376DB0024BEF1EA
:4064C000000F27D15E4B984500F08B805D4B984552D0BAF1804F00F0C9835B4B9A4519D1002D17DB4846394613B0BDE8F04F00F01DBDCB465846534913B0BDE8F08F002851
:40650000C1D1B045D1DD514813B0BDE8F04F00F0D9BD002448463946FFF7ACFDBBF1000F1CD0ED0F013D54EA050370D0484B984540F3948003F10473984540F30D84454BD6
:406540009E4270DDBAF1000F70DD3BA3D3E900231046194601F07EF883469DE726B1394B25F040429A42DCD1BAF1000FC0F2B783002D08DB83468FE7BAF1000FC0F25E8403
:40658000CB46394688E706F1404606F5801656EA040300F08384012CECD101F1004183467AE7BEF1000F83D06DE72B4B98452CDCA3F15473984581DD4FEA2853A3F2FF3378
:4065C000142B40F35384C3F134032EFA03F202FA03F39E457FF472AF02F00102C2F102046DE706F1404303F5801353EA0B0300F03A83184B9E4240F36783BAF1000F15DBD8
:40660000DDE900349B46214646E7022457E74A4648463B46394600F069FE02460B4601F043F9834638E7BAF1000F8EDB4FF0000B594631E7AFF300809C7500883CE4377EB0
:406640000000F07F0000F03F0000E03F5CEE00000000E041FFFFEF3FFFFF3F43B6F5801F4FF0000205DAD04B00F0F4FF0E466FF03402DFF844E33315C6F31306A3F2FF3316
:4066800046F07F57764503EB020A47F4401740F3C983C64B00229E4240F304840023CDE90823CDE90C23C24B0022CDE906230AF1010AA7F5801700263946DDE90623CDE9C0
:4066C0000A0100F013FEDDE9062380468946DDE90A0100F00DFE02460B460020B44901F0E3F80A4601461346CDE90E1202464946404600F0AFFF8C4683467B1043F000534F
:4067000003F5002399190020CDE904BC06460F464FF0000B6146584632463B46CDE910BCCDE9020100F096FF02460B464046494600F0DCFDDDE9062380468946304639461D
:4067400000F0D4FD02460B46DDE90A0100F0CEFDDDE9022300F07EFF02460B464046494600F0C4FDDDE90E2300F074FFDDE90478CDE906013A4643463846414600F06AFFBC
:4067800077A3D3E9002306460F4600F063FF76A3D3E9002300F0ACFD32463B4600F05AFF73A3D3E9002300F0A3FD32463B4600F051FF71A3D3E9002300F09AFD32463B46E9
:4067C00000F048FF6EA3D3E9002300F091FD32463B4600F03FFF6CA3D3E9002300F088FD3246804689463B463046394600F032FF02460B464046494600F02CFFDDE9022312
:4068000006460F46DDE9040100F072FDDDE9062300F020FF32463B4600F06AFDDDE902678046894632463B463046394600F012FF0022604BCDE90A0100F05AFD42464B469E
:4068400000F056FDDDE910BC0F46DDE902015A463B46CDE90EBC5E4600F0FCFE0022CDE90201544B3046394600F040FDDDE90A2300F03CFD02460B464046494600F036FD6D
:40688000DDE9042300F0E6FE324680468946DDE906013B4600F0DEFE02460B464046494600F026FD8046894602460B46DDE9020100F01EFDDDE90EBC35A3D3E90023584648
:4068C000CDE906BC5E460F4600F0C4FEDDE90223CDE904013046394600F008FD02460B464046494600F002FD2BA3D3E9002300F0B1FE2BA3D3E900238046894630463946C5
:4069000000F0A8FE02460B464046494600F0F0FCDDE90C2300F0ECFC80465046894600F033FE06460F46DDE9040142464B4600F0DFFCDDE9082300F0DBFC32463B4600F02D
:40694000D7FCDDE906BC324658463B46DA468B4600F0CCFCDDE9082330E000BFAFF30080EF4E454A287ECA3F65DBC9934A86CD3F01411DA96074D13F4D268F515555D53FAA
:40698000FFAB6FDBB66DDB3F033333333333E33F000000E009C7EE3FFD033ADC09C7EE3FF5015B14E02F3EBE0000404379B60B000000F03F000008408E98030000F096FC43
:4069C000DDE9042300F092FC02460B464046494600F08CFC80468946DDE90012013C54EA050314BFD64CD74C0023CDE904340B461446CDE9023400230293DDE90245084643
:406A00002B461146224600F071FC52465B4600F021FEDDE9002306460F464046494600F019FE02460B463046394600F061FC06460F4622462B4650465946CDE9006700F044
:406A400009FE0B460246804689463046394600F04FFCBD4B064699420D460C4640F30E8101F13F4303F5E003034340F0F081A0A3D3E90023DDE9000100F03AFC4246824686
:406A80008B464B463046294600F030FC02460B465046594601F06EF8002840F0D8812F463B154FF48012A3F2FE3342FA03F32344C3F30A52A54EA2F2FF321641C3F3130BAF
:406AC0000020C2F1140523EA06014BF4801B02460B46002C4BFA05FB40464946B8BFCBF1000B00F003FC02460B4680468946DDE9000100F0FDFB4FEA0B5A00247EA3D3E9F4
:406B0000002320460D4600F0A5FD424606460F464B462046294600F0E9FB02460B46DDE9000100F0E3FB76A3D3E9002300F092FD75A3D3E90023804689462046294600F08E
:406B400089FD02460B464046494600F0D1FB8046894602460B463046394600F0C9FB32463B4604460D4600F0C1FB02460B464046494600F0BBFB2246804689462B462046E4
:406B8000294600F067FD62A3D3E9002306460F4600F060FD60A3D3E9002300F0A7FB32463B4600F057FD5EA3D3E9002300F0A0FB32463B4600F04EFD5BA3D3E9002300F023
:406BC00095FB32463B4600F045FD59A3D3E9002300F08EFB32463B4600F03CFD02460B462046294600F082FB06460F4602460B462046294600F02EFD0022CDE900014FF047
:406C000080433046394600F071FB02460B46DDE9000100F049FE424606460F464B462046294600F017FD42464B4600F061FB02460B463046394600F059FB22462B4600F016
:406C400055FB02460B4600203D4900F04FFB8A44BAF5801FC0F237815146DDE9042300F0F9FC834618E4F346354915E44A4648463B46394600F0EEFC83460DE4344B21F0A5
:406C800000479F4240F30181324B0B4403430CD142464B4600F02AFB02460B46DDE9000100F054FF00283FF4FBAE23A3D3E90023DDE9040100F0CEFC1FA3D3E9002300F078
:406CC000C9FC8346FFF7E8BBBAF1000FBFF6AEACDDE900349B4604F10041FFF7DDBB02460B460020164900F0DFFD41E4AFF30080FE822B654715973C00000000432EE63F05
:406D0000EF39FAFE422EE63F396CA80C615C20BED0A4BE726937663EF16BD2C541BDBB3E2CDE25AF6A56113F93BDBE166CC1663F3E5555555555C53F59F3F8C21F6EA501D0
:406D40000000F03F0000F0BFFFFF8F40FFFF0F00FFCB904000346F3F6F4B9E427FF763AC6E4B9E423FF7EEAB00226C4B00F0BEFA5BA3D3E9002306460F4600F06BFC5AA305
:406D8000D3E90023804689463046394600F062FC002282468B46624B3046394600F05AFC02460B4652A1D1E9000100F09FFA32463B4600F04FFC02460B460020594900F02A
:406DC00095FA3246CDE902013B463046394600F041FC02460B46DDE9020100F03BFC46A3D3E9002300F036FC02460B465046594600F07CFA02460B4606460F46404649463A
:406E000000F076FA42464B46002082468B4600F06DFA02460B463046394600F067FA80468946D9E500220023CDE90823CDE90C233A4B00220026CDE906233DE44A463B46AE
:406E40000020364900F030FD8346FFF725BB2CA3D3E90023DDE9040100F0FCFB28A3D3E9002300F0F7FB8346FFF716BBBEF1000F7FF44FABC3F1140348FA03F202FA03F31C
:406E8000984524D07446FFF721BB264B9F423FF707AEDDE902349A469B462EE602460B46FFF7B9BB204B4FF48026CDE9062316A3D3E90023CDE9082315A3D3E90023CDE96B
:406EC0000C23FFF7F9BB5A4600F092F9C5E602F00102C2F10204FFF7F9BA00BFAFF30080000000604715F73F44DF5DF80BAE543E555555555555D53FFE822B654715F73F52
:406F00009C7500883CE4377E0000004003B8E23F06D0CF43EBFD4C3EFEFFEF3F0000F03F0000D03F0000E03F0000F83F2DE9F0415F4E0C46B6460E407645054600F0988010
:406F400000290B46024674DD5FEA215E7FD0AEF2FF3EC3F313031EF0010F43F4801363D100273E4603EBD2710B444FEA6E0E520016204FF4001174189C424FEAD2754FEA43
:406F8000420202DC1B1B66180F44013805EB43034FEA5101EFD1844620244FF0004109E020D003EBD275013C4FEA51012B444FEA420220D09E4201EB0C05F1DA002D05EBE9
:406FC000010C09DBB0469542A3EB060300D9013B4646521B0844E4E7BCF1000FF2DB06F10108F0E7954217D8002D05EB010C49DB98460023ECE7134310D140087B1003F1D1
:407000007F5303F50013FA0703EB0E57394648BF40F00040BDE8F0813346C2E7411C35D000F001031844E8E75B0003EBD273520096E721F000460643ECD079BB8E46D30AD2
:40704000AEF1150E5205002BF9D0DD0221D4002100E001465B00DC0201F10100F9D5C0F1200422FA04F42343C1EB0E0E82406EE702460B4600F0EEFA2A46234600F038F954
:40708000BDE8F081BCF1000FA9DAB1E701372046B4E720244FF0FF310020E2E702460B4600F024F902460B4600F0FEFBB2E700BF0000F07F41F0004101F58010C00F7047A1
:4070C0000020704700200149704700BF0000F87FF0B5C1F30A5EAEF2FF36132E83B002460B460C464FEAD17507462EDC002E49DB3D49314103EA010010432BD049080B4075
:4071000053EA02070CD04FF48023132E24EA010143FA06F444EA01040CBF4FF000470027324B214603EBC505D5E90045384622462B4600F0DDF8CDE90001DDE90001224673
:407140002B4600F0D3F803B0F0BD332E06DDB6F5806F45D01046194603B0F0BDAEF2134E4FF0FF3121FA0EF10842F3D049080842D6D04FF0804320EA010143FA0EFE4EEA14
:407180000107CDE721F0004101431946E4D0C3F3130343EA000CCCF1000343EA0C0C134B640C4FEA1C3C0CF4002C03EBC5036404D3E900674CEA040132463B4600F098F8E0
:4071C000CDE90001DDE9000132463B4600F08EF8024621F0004141EAC57310461946BBE700F086F8B8E700BFFFFF0F00D0F30000F8B5C1F30A5604460D460B46174606BBE5
:4072000021F00043034325D000222F4B00F022FA2E4A044697420D460B462ADBC1F30A56363E40F2FE723E44964228DC002E12DD23F0FF4323F4E00343EA06552046294682
